:020000040800F2
:10000000F0FF0120250300084D0C0008510C0008EA
:10001000550C0008590C00085D0C00080000000099
:10002000000000000000000000000000610C00085B
:10003000650C000800000000690C00086D0C000849
:1000400075030008750300087503000875030008B0
:1000500075030008750300087503000875030008A0
:100060007503000875030008750300087503000890
:100070007503000875030008750300087503000880
:100080007503000875030008750300087503000870
:100090007503000875030008750300087503000860
:1000A0007503000875030008750300087503000850
:1000B0007503000875030008750300087503000840
:1000C0007503000875030008750300087503000830
:1000D0007503000875030008750300087503000820
:1000E0007503000875030008000000007503000890
:1000F0007503000875030008750300087503000800
:1001000075030008750300087503000875030008EF
:1001100075030008750300087503000875030008DF
:1001200075030008750300087503000875030008CF
:1001300075030008750300087503000875030008BF
:1001400000000000000000000000000000000000AF
:10015000750300087503000875030008750300089F
:10016000750300087503000875030008750300088F
:10017000750300087503000875030008750300087F
:10018000750300087503000875030008750300086F
:10019000750300087503000875030008750300085F
:1001A000750300087503000875030008750300084F
:1001B000750300087503000875030008750300083F
:1001C000750300087503000875030008750300082F
:1001D000750300087503000875030008750300081F
:1001E000750300087503000875030008750300080F
:1001F00075030008750300087503000875030008FF
:1002000075030008750300087503000875030008EE
:1002100075030008750300087503000875030008DE
:10022000750300087503000875030008000000004E
:10023000750300087503000800000000750300083E
:1002400075030008750300087503000875030008AE
:10025000750300087503000875030008750300089E
:10026000750300087503000875030008750300088E
:1002700075030008750300087503000800000000FE
:1002800075030008750300087503000800000000EE
:080290000000000075030008E6
:100298000348044B834202D0034B03B1184770470D
:1002A8001000002010000020000000000548064B48
:1002B8001B1AD90F01EBA301491002D0034B03B15C
:1002C80018477047100000201000002000000000B0
:1002D80010B5064C237843B9FFF7DAFF044B13B186
:1002E8000448AFF300800123237010BD10000020E4
:1002F800000000009C24000808B5054B1BB1054907
:100308000548AFF30080BDE80840FFF7CFBF00BF46
:1003180000000000140000209C240008DFF834D0FE
:10032800002103E00C4B5B58435004310B480C4B45
:1003380042189A42F6D30B4A02E0002342F8043BE3
:10034800094B9A42F9D300F08FFC02F07FF800F0D5
:100358000FF87047F0FF0120CC24000800000020AF
:100368001000002010000020B0000020FEE7000070
:10037800784A536913F4003300B59DB011D1BFF327
:100388004F8FBFF36F8FC2F85032BFF34F8FBFF359
:100398006F8F536943F400335361BFF34F8FBFF33B
:1003A8006F8F6C48436913F4803326D1C0F88430CA
:1003B800BFF34F8FD0F8803043F6E074C3F34E3C60
:1003C800C3F3C90E4FEA4C1C0CEA0401734641EA18
:1003D8008372013B5D1CC0F86022F8D1ACF1200C9F
:1003E8001CF1200FF0D1BFF34F8F436943F48033E2
:1003F8004361BFF34F8FBFF36F8F00F09FFC022064
:1004080002F000F8544B0021544A0091D96A21F0B7
:100418000101D962DB6A03F001030093936943F495
:1004280040439361936903F440430093009B9369AD
:100438009904FCD501204FF4803100230222099051
:1004480005200A91A021042408250C9310931B93DE
:1004580016921A931995CDE9140109A8CDE912222B
:10046800CDE9174200F048FD00B1FEE740233F22E6
:100478000390214601920322089301A80495029251
:10048800CDE905334FF48063079301F051F8054631
:1004980000B1FEE700F06AF8034628461D4600F062
:1004A800D3FA054300D0FEE701F0DEF940F201720D
:1004B8004FF0504309A8ADF824200A93284A294B45
:1004C800CDE90B2301F0EEF9204601F0DBF9BFF38B
:1004D8004F8FBFF36F8F1F494B6923F400334B6174
:1004E800C1F85052BFF34F8FBFF36F8FC1F88450DC
:1004F800BFF34F8F4B6923F480334B61BFF34F8FAA
:10050800D1F8805043F6E07CC5F34E34C5F3C905F5
:10051800640104EA0C002B4640EA8372013BC1F8EF
:1005280074225A1CF8D1203C14F1200FF1D1BFF3EA
:100538004F8FBFF36F8F4FF010424FF0E023002032
:1005480009491861536812680B6082F30888984754
:10055800FEE700BF00ED00E0000400580048025824
:1005680016000103010001012C0000202DE9F043D1
:1005780000238FB03B4C022607224FF004080127C6
:10058800009308934FF400600B933749A6610191DB
:10059800CDF81080C4E90062C4E90282CDE9027393
:1005A80010224023CDE905234FF4C07307934FF47D
:1005B8008053C4E90466CDE9090300F05DF92146DA
:1005C8000DEB080001F0D4FA30B13C463846274B11
:1005D8001C700FB0BDE8F083254D4FF008090446A4
:1005E8004FF6FF7229462F60C5F80490C5E90270DE
:1005F8000DEB080001F0E6FA384600F0E1FB294669
:100608004FF6FF720DEB0800C5E90069C5E90274F1
:1006180001F0D8FA032329464FF6FF720DEB0800C4
:100628002B60EC60C5E9019901F0CCFA4FF40C732A
:100638004FF6FF72294600930DEB0800009BAF6050
:10064800EB60C5E9008901F0BDFA40F203610DEBEA
:10065800080001F0D7FA2046044B1C700FB0BDE823
:10066800F08300BF40000020404100525C000020A1
:10067800300000207B4BD3F8D42042F480422DE98F
:10068800F047C3F8D42090B0D3F8D4200924764D8D
:10069800002602F48042754F0BA9284600924FF0BD
:1006A8004008009A4FF00A09DA6FDFF8C8A142F44F
:1006B8008042DA67DA6F22F48042DA67D3F8E02002
:1006C80042F02002C3F8E020D3F8E02002F0200234
:1006D8000192019AD3F8E02042F00802C3F8E02022
:1006E800D3F8E02002F008020292029AD3F8E02040
:1006F80042F02002C3F8E020D3F8E02002F0200204
:100708000392039AD3F8E02042F02002C3F8E020D5
:10071800D3F8E02002F020020492049AD3F8E020F3
:1007280042F02002C3F8E020D3F8E02002F02002D3
:100738000592059AD3F8E02042F04002C3F8E02081
:10074800D3F8E02002F040020692069AD3F8E0209F
:1007580042F08002C3F8E020D3F8E02002F08002E3
:100768000792079AD3F8E02042F08002C3F8E0200D
:10077800D3F8E02002F080020892089AD3F8E0202B
:1007880042F04002C3F8E020D3F8E02002F0400233
:100798000992099AD3F8E02042F04002C3F8E02019
:1007A800D3F8E0300F9403F040030D960A934FF40A
:1007B80080630A9A0B9302230C9303230E9301F090
:1007C800A3F801230BA93846CDF83C900D93CDF83A
:1007D8002C8001F099F84FF400630BA924480B937F
:1007E8000D960F9401F090F804230BA950460F942E
:1007F8000B9301F089F8CDF83C904FF400790BA9E0
:100808002846CDF82C9001F07FF8082350460BA914
:100818000F940B9301F078F880230BA928460F94C6
:100828000B9301F071F80BA93846CDF82C9001F024
:100838006BF828460BA9CDF82C8001F065F84FF429
:1008480080430BA938460B9301F05EF832460F211E
:100858005C2000F0A7FF5C2000F0E2FF10B0BDE8CC
:10086800F08700BF004402580014025800180258CC
:10087800000C0258001C02583B4B02200121D3F8FF
:10088800D42042F4805200B5C3F8D4208DB0D3F8F8
:10089800D42002F480520192019AD3F8E02042F069
:1008A8000802C3F8E020D3F8E02002F00802029220
:1008B800029AD3F8E02042F01002C3F8E020D3F8FF
:1008C800E02002F010020392039AD3F8E02042F0ED
:1008D8002002C3F8E020D3F8E02002F020020492BE
:1008E800049AD3F8E02042F04002C3F8E020D3F89D
:1008F800E02002F040020592059AD3F8E02042F089
:100908008002C3F8E0200C22D3F8E03008900320DE
:1009180003F08003099107A90693069B4CF2037321
:100928000A9012480B92079300F0EEFF4FF683737C
:1009380007A90F48079300F0E7FF4FF63F0307A901
:100948000C48079300F0E0FF48F2331307A90A4860
:10095800079300F0D9FFE02307A90848079300F0A0
:10096800D3FF0DB05DF804FB00440258000C025898
:10097800001002580014025800180258001C0258AF
:1009880010B5002394B04FF4407105224FF0407425
:10099800022006924FF480020B9013930093049365
:1009A80005926A4603900B48CDE90C131021CDE956
:1009B8000E3440F20114029106A90194CDE91133D5
:1009C80041F2883301F0A4FB003818BF012014B0AD
:1009D80010BD00BF6000002030B5002395B04FF473
:1009E8004070062141F288320B93069106A91393B1
:1009F800CDE90C031348CDE90E33CDE9113301F0ED
:100A08002FFA10B1012015B030BD02251024049032
:100A180040F202234FF48000052206A9CDE90245E1
:100A28004FF04074CDE90502CDE900336A4641F242
:100A3800883304480F9401F06BFB003818BF01207D
:100A480015B030BD60000020F0B57C4C9DB07C4BEB
:100A58002046236001F0F2F918B1012420461DB0A8
:100A6800F0BDFFF707FE0320012110224FF00063BD
:100A7800E260C4E9010193FAA3F3002B00F0DC80E3
:100A8800B3FA83F3013B00224FF4407540216B48D1
:100A9800C4E90435C4E90622216201F071F900288D
:100AA800DBD14FF480766624089041F288320990B1
:100AB800694605900D900094CDE90660CDE90B00DC
:100AC8005E4801F0CDF90028C7D1992741F2883254
:100AD80069465A48009701F0C3F90028BDD141F290
:100AE8008832694655480695009401F0B9F90028FE
:100AF800B3D141F2883269465048009701F0B0F905
:100B08000028AAD1352313901B9041F288320EA9F0
:100B18000E93CDE91460CDE91600CDE919004748D8
:100B280001F09EF9002898D1FFF72AFF002894D1F8
:100B3800B723169017900E9313901B90CDE914507D
:100B4800CDE91900FFF748FF002886D141F2883225
:100B58000EA93A4801F084F900287FF47EAFFFF728
:100B68000FFF00287FF479AF002385224FF44076E9
:100B78004FF04075ADF800300EA913931B930E92F9
:100B880041F288322D4814961795CDE91533CDE9F1
:100B980019330223189301F063F900287FF45DAF3D
:100BA80041F288326946254801F036FA00287FF478
:100BB80054AFFFF711FF044600287FF44EAFBDF88D
:100BC800003040F60F720EA91C481A4048F2800304
:100BD800134341F28832ADF8003081230E9301F0BF
:100BE8003FF900287FF439AF41F28832694613484B
:100BF80001F09AF900287FF430AFED2005236A460A
:100C08000EA90E904FF4406013934FF000431590D7
:100C18004FF4405019934FF08043119007481694B1
:100C28001B94149617951A93CDE9004401F0DEFA47
:100C3800002818BF012411E71F2324E760000020C3
:100C480000500052704700BFFEE700BFFEE700BF3C
:100C5800FEE700BFFEE700BF704700BF704700BF58
:100C6800704700BF00F09AB810B41A4C00221A4B13
:100C7800D4F88810194841F47001C4F8881019682C
:100C8800174C41F0010119601A61196808401549AB
:100C980018609A61DA611A629A62DA621A635A63B0
:100CA8009A63DA631A645A64186820F4802018601A
:100CB8001A6623681940B1F1005F03D20A4B01227A
:100CC800C3F80821034B4FF000625DF8044B9A60AB
:100CD800704700BF00ED00E0004402587FEDF6EADF
:100CE8000010005C0000FFFF00800051704700BF4B
:100CF8000F4B1B780BB90120704710B504464FF411
:100D08007A700C4AB0FBF3F31068B0FBF3F000F014
:100D180095FD0F2C00D808B1012010BD00222146F6
:100D28004FF0FF3000F03EFD034B00201C6010BD6B
:100D380008000020000000200C00002010B503204F
:100D4800124C00F01DFD00F0D1FB114B11499A69BE
:100D58009B69C2F3032203F00F038A5CCB5C02F0A9
:100D68001F020D4903F01F03D04020FA03F3086067
:100D78000F202360FFF7BCFF10B10124204610BDEF
:100D88000446FFF7B3FF204610BD00BF0400002053
:100D980000440258B424000800000020034A044B11
:100DA80011681B780B441360704700BFAC0000202B
:100DB80008000020014B1868704700BFAC000020F5
:100DC80038B50446FFF7F6FF0546631C02D0044B0E
:100DD8001B781C44FFF7EEFF431BA342FAD338BD30
:100DE80008000020014B1868000C70470010005CD8
:100DF8003B4B30B49A6A9C6ADD6A14F47C7F596B69
:100E0800C4F3051038D0C1F3CC0105F0010502F098
:100E1800030205FB01F1012A07EE901AB8EEE77A02
:100E280002D0022A4ED04AB307EE900A9FED2D5AFF
:100E3800F8EEE77A1B6BC5EE276ADFED2B5AC3F392
:100E4800080307EE903AB7EE006AF8EEE77AE7EEA5
:100E5800257A77EE867A66EEA76A214B1B6BC3F379
:100E68004623013307EE903AB8EEE77AC6EE877A62
:100E7800FCEEE77A17EE900A30BC70471A689206C3
:100E880027D5196807EE900A184AF7EE005A1B6B27
:100E9800C1F3C101F8EEE77A9FED135AC3F30803D3
:100EA800CA4006EE903A06EE102AF8EEE66AB8EE68
:100EB800C66AE7EE056A86EE277A76EEA56A66EEDA
:100EC800876ACAE707EE900A9FED095AF8EEE77AB3
:100ED800B0E707EE900A9FED075AF8EEE77AA9E720
:100EE800004402580024744A000000390090D003DE
:100EF80020BCBE4B0024744C002800F0EC81F8B5EF
:100F080003680446D80730D5A5490A69896A02F0FA
:100F18003802102A00F00981182A00F0018163685C
:100F2800B3F5803F00F02C81002B00F06A81B3F507
:100F3800A02F9B4B1A6800F08E8222F480321A6030
:100F48001A6822F480221A60FFF734FF944E41F2A7
:100F58008837054605E0FFF72DFF401BB84200F231
:100F68004E8133689A03F6D523689D0700F18A807D
:100F7800D90633D58A4A1369926A03F03803082BD5
:100F880000F0E380182B00F0DB80E369844D002B30
:100F980000F071812B6843F080032B60FFF70AFF94
:100FA800064605E0FFF706FF801B022800F22781AE
:100FB8002B68DB05F6D5FFF715FF41F203039842CE
:100FC80000F27182226A6B68202A23F0F8430CBF72
:100FD80043F0804343EA82636B6023681D0716D59C
:100FE80063696F4D002B00F024816B6F43F00103A0
:100FF8006B67FFF7DFFE064605E0FFF7DBFE801BA9
:10100800022800F2FC806B6F9807F6D523689A06D1
:1010180016D5A369624D002B00F01C812B6843F4A0
:1010280080532B60FFF7C6FE064605E0FFF7C2FEB9
:10103800801B022800F2E3802B689F04F6D5236802
:10104800590700F1A380606AD0B1554D2B6903F0B0
:101058003803182B00F0B1812B68022823F0807325
:101068002B6000F04481FFF7A5FE044605E0FFF77A
:10107800A1FE001B022800F2C2802B689B01F6D457
:101088000020F8BD464A1369926A13F038032DD13F
:10109800434BE2681B68590701D5002A4ED0404DE2
:1010A8002B6823F0190313432B60FFF783FE0646D2
:1010B80005E0FFF77FFE801B022800F2A0802B6866
:1010C8005B07F6D5FFF78EFE41F20303984200F264
:1010D800F98022696B68402A23F47C330CBF43F4FF
:1010E800003343EA02336B60236841E7182B00F0B2
:1010F800E5802B4DE2682B68002A00F0CE8023F0B3
:10110800190313432B60FFF755FE064604E0FFF76B
:1011180051FE801B022872D82B685F07F7D5D1E7EC
:1011280001F0030102297FF4FAAE1D4A1268910307
:101138007FF51BAF6268002A7FF417AF0120F8BD66
:1011480002F00302012A7FF420AF154B1B68DA0571
:1011580002D5E369802BF1D1FFF744FE41F2030386
:10116800984200F2BA80226A202A00F0AB810C492A
:101178004B6823F0F84343EA82634B6023682DE70A
:10118800074A136843F480331360DDE6054D2B6886
:1011980043F480732B60FFF70DFE064609E000BF9D
:1011A8000044025800480258FFF704FE801B6428D8
:1011B80025D82B68DA05F7D5A368012B00F07C81C8
:1011C800002B00F05781052BA74B1A6F00F0838185
:1011D80022F001021A671A6F22F004021A67FFF759
:1011E800E9FDA14E41F28837054604E0FFF7E2FD2C
:1011F800401BB84203D8336F9B07F7D523E703207A
:10120800F8BD994D41F288372B6823F480332B6061
:101218002B6823F480232B60FFF7CCFD064604E0FF
:10122800FFF7C8FD801BB842E9D82B689B03F7D4A9
:101238009AE66B6F23F001036B67FFF7BBFD064669
:1012480004E0FFF7B7FD801B0228D8D86B6F990719
:10125800F7D4DBE62B6823F480532B60FFF7AAFD55
:10126800064604E0FFF7A6FD801B0228C7D82B68B6
:101278009804F7D4E3E62B6823F080032B60FFF78C
:1012880099FD064604E0FFF795FD801B0228B6D8B5
:101298002B68DF05F7D42368A0E623F001032B6051
:1012A800FFF788FD064604E0FFF784FD801B02284F
:1012B800A5D82B685807F7D4236859E690077FF418
:1012C80018AFE5E66B68226923F0FE4343EA026340
:1012D8006B6023684CE601207047634A216AD36833
:1012E80023F07C5343EA0163D360236876E6FFF773
:1012F80061FD064605E0FFF75DFD801B02283FF60D
:101308007EAF2B689901F6D4A96A584BA26A0B40A4
:101318005749554E1343E26A43EA0213AB62D4E9D4
:101328000D32013B013A5B0212049BB202F4FE0249
:101338001343226B013AC2F308021343E26B013AEA
:10134800120602F0FE4213432B63EB6A23F00103FB
:10135800EB626A6BA36C114041EAC3016963EB6AF3
:10136800226C23F00C031343EB62EB6A626C23F0EC
:1013780002031343EB62EB6A43F48033EB62EB6ADC
:1013880043F40033EB62EB6A43F48023EB62EB6ACD
:1013980043F00103EB622B6843F080732B60FFF787
:1013A80009FD044605E0FFF705FD001B02283FF68E
:1013B80026AF33689A01F6D562E60128AA6A2E6B31
:1013C8003FF45FAE02F00303A16A8B427FF4B6AE2E
:1013D800C2F30512E36A9A427FF4B0AE236BC6F3F8
:1013E8000802013B9A427FF4A9AE636BC6F346221A
:1013F800013B9A427FF4A2AEA36BC6F30642013BBF
:101408009A427FF49BAEE36BC6F30666013B9E42AD
:101418007FF494AE6B6BA26CC3F3CC039A423FF497
:101428002FAE114AD36A23F00103D362FFF7C2FC3F
:101438000546FFF7BFFCA842FBD00B4A0020A16C71
:101448000B4B546B234043EAC1035363D36A43F005
:101458000103D362F8BD42F480221A601A6842F48C
:1014680080321A6070E500BF004402580CFCFFFF90
:101478000700FFFF1C4D41F288372B6F23F0010353
:101488002B672B6F23F004032B67FFF793FC0646AB
:1014980005E0FFF78FFC801BB8423FF6B0AE2B6F1C
:1014A8009807F6D4CFE5EB68226A23F07C5343EA29
:1014B8000263EB60236891E50B4A136F43F0010365
:1014C80013678CE6084A536823F0F84343F08043D7
:1014D8005360236882E542F004021A671A6F42F0EB
:1014E80001021A677BE600BF004402580C4A1369E0
:1014F80003F03803102B04D0182B0DD01BB109486A
:1015080070470948704713689B0607D51368074852
:10151800C3F3C103D8407047FFF76ABC034870475C
:101528000044025800093D0040787D010090D00336
:10153800002800F00C818C4A136803F00F038B42DB
:101548002DE9F04104460D460CD2136823F00F0331
:101558000B431360136803F00F038B4202D0012082
:10156800BDE8F08123685F070BD5804920698A6947
:1015780002F07002904204D98A6922F07002024394
:101588008A611E070BD579496069CA6902F0700241
:10159800904204D9CA6922F070020243CA61D8068F
:1015A8000BD57249A069CA6902F4E062904204D975
:1015B800CA6922F4E0620243CA6199060BD56B49F5
:1015C800E0690A6A02F07002904204D90A6A22F0BD
:1015D800700202430A629A0740F1AB806348E168EF
:1015E800826902F00F02914204D9826922F00F0247
:1015F8000A438261D80730D55C4AA168936923F40D
:1016080070630B43936161681368022900F0A1803D
:10161800032900F09880012900F0A18058079ED581
:10162800524E41F28838336923F007030B43336184
:10163800FFF7C0FB074605E0FFF7BCFBC01B4045B2
:1016480000F28B803369626803F03803B3EBC20F92
:10165800F2D12368990706D5E1684448826902F007
:101668000F028A4269D840490A6802F00F02AA426A
:101678000AD90A6822F00F022A430A600A6802F0AF
:101688000F02AA427FF46BAF5A070BD5374920697E
:101698008A6902F07002904204D28A6922F07002CC
:1016A80002438A611F070BD530496069CA6902F095
:1016B8007002904204D2CA6922F070020243CA61E1
:1016C800DE060BD52949A069CA6902F4E062904296
:1016D80004D2CA6922F4E0620243CA619D060BD5AE
:1016E800224AE169136A03F07003994204D2136A2B
:1016F80023F070030B431362FFF7F8FE1B4A0346FF
:101708001B4891699269C1F303211A4D02F00F0237
:10171800194C415C825C01F01F01184802F01F025D
:10172800CB4000682B60D3402360BDE8F041FFF751
:10173800DFBADA073FF560AF95E7826922F00F025A
:101748000A4382618FE79F013FF56AAF07E70120EF
:1017580070479B033FF564AF01E7032000E7DE0510
:101768003FF55EAFFBE600BF002000520044025880
:10177800B424000800000020040000200C00002011
:1017880006494FF6FF0C0002054BCA6800F4E060FA
:1017980002EA0C0210430343CB60704700ED00E0FF
:1017A8000000FA051B4BDB68C3F3022300B5C3F145
:1017B800070E03F1040CBEF1040F28BF4FF0040E0E
:1017C800BCF1060F1AD9033B4FF0FF3C0CFA03FC9F
:1017D80022EA0C024FF0FF3C00280CFA0EFC21EA2A
:1017E8000C0101FA03F141EA02010ADB09010A4B83
:1017F800C9B2034483F800135DF804FB00221346C2
:10180800E8E700F00F000901044BC9B20344197658
:101818005DF804FB00ED00E000E100E0FCEC00E016
:10182800002807DB012300F01F01034A40098B4011
:1018380042F82030704700BF00E100E0431EB3F1DA
:10184800807F0CD24FF0E022002006494FF0F00CC8
:101858005361072381F823C0906113617047012009
:10186800704700BF00ED00E0BFF35F8F044B00211D
:101878005A6A22F480325A62C3F89410704700BF43
:1018880000ED00E0064B40F00100C3F894005A6AEE
:1018980042F480325A62BFF34F8FBFF36F8F7047A5
:1018A80000ED00E0174A4378C2F89830017821B378
:1018B800436800B5C2F89C30C37A90F80CC01B0688
:1018C80090F80FE043EA0C7390F80AC00B43817B51
:1018D80043EACC4390F80DC043EA8C4390F809C022
:1018E80043EA4143017A43EA0E4343EA0C2343EABD
:1018F8004103C2F8A0305DF804FBC2F89C10C2F89E
:10190800A010704700ED00E02DE9F04F0C6883B09F
:10191800002C00F0A7804FF0000C8A4F634601228C
:101928009A4012EA040E00F096804D6805F003090B
:1019380009F1FF36012E40F29880B9F1030F40F00B
:10194800D28009FA0CF26FEA0208066815F4403FE3
:1019580006EA080642EA060202607CD0D7F8F420BC
:1019680023F0030803F003090F2642F0020208F1EE
:10197800B0484FEA8909C7F8F42008F58068D7F815
:10198800F42006FA09F602F002020192019AD8F848
:10199800082022EA06026C4EB04228D006F580667E
:1019A800B04200F0AC80694EB04200F0AD80684EA5
:1019B800B04200F09F80674EB04200F0AF80664EA4
:1019C800B04200F0B080654EB04200F0A280644E94
:1019D800B04200F0AD80634EB04200F0AE80624E7F
:1019E800B0420CBF09260A2606FA09F63243C8F89F
:1019F80008204FF0B04215F4801F6FEA0E061268F7
:101A08004FF0B0480CBF32404EEA020215F4001FF6
:101A1800C8F80020D8F804204FF0B0480CBF324076
:101A28004EEA020215F4003FC8F80420D8F88420D2
:101A38004FF0B0480CBF32404EEA0202ED034FF0BF
:101A4800B045C8F88420D8F8802054BF32404EEA08
:101A58000202C5F8802001330CF1020C34FA03F2BB
:101A68007FF45DAF03B0BDE8F08F4FF003088668E0
:101A780008FA0CF826EA080ACE686FEA080806FA97
:101A88000CF646EA0A068660C5F30016D0F804A0EC
:101A98009E402AEA020232434260C268B9F1020F4C
:101AA8008E6802EA080206FA0CF646EA020609FA05
:101AB8000CF2C6607FF449AF4FEAD30903F0070B75
:101AC8000F2600EB89094FEA8B0BD9F820A006FAFC
:101AD8000BF62AEA060A0E6906FA0BF646EA0A0621
:101AE800C9F8206031E74FF0030808FA0CF86FEAEC
:101AF8000808D2E7032606FA09F6324377E70126F3
:101B080006FA09F6324372E7022606FA09F6324364
:101B18006DE7062606FA09F6324368E7042606FA50
:101B280009F6324363E7052606FA09F632435EE70B
:101B3800072606FA09F6324359E7082606FA09F68F
:101B4800324354E700440258000002580008025883
:101B5800000C0258001002580014025800180258CD
:101B6800001C02580020025800240258704700BF89
:101B780018B338B590F82C3004460D4603F0FF0230
:101B8800B3B12146022384F82C3051F8040B00F03D
:101B980087FB62682946206800F0C0FB084A0121DB
:101BA8000020136843F00043136084F82C1038BDFC
:101BB80080F82D20FFF7DAFFE3E70120704700BF28
:101BC8000040005270B590F82C300446022BD8B271
:101BD80004D000F0FB06012E01D0012070BD0223C5
:101BE8000D46206884F82C3000F0E6FB2B68022BA9
:101BF80003D0002084F82C6070BD0523002084F8F1
:101C08002C3070BD38B590F82C300446022BD8B271
:101C180005D094F82C30012BDDB201D0012038BD5D
:101C28000223206884F82C3000F0DEFB002084F8C2
:101C38002C5038BD70B44C6A14B1B2F1406F3AD12F
:101C48008B691BB30D6A002D4BD08E682343006847
:101C5800C661CE69002E54D01343CC6A2B4333435C
:101C680023430C6B23434C6B23430C692343CC68FD
:101C780023430C6823434C69B2F1406F43EA844321
:101C880043614FD04B6870BC836170470B6ABBB12E
:101C98008D6823430068C561CD69002D55D0134375
:101CA800CC6A2B4323430C6B23434C6B23430C69B3
:101CB8002343CC68DEE78B6A0568013B2B61BFE7ED
:101CC800CB69002B50D16CB3CB6A006823430C6BF3
:101CD80013434A6923434C6B234343EA82434361DA
:101CE80020E0CD692343FDB11343CC6A00682B4340
:101CF80023430C6B23434C6B2343CC6823430C686E
:101D0800B8E71A43CC6A42EA05030D692343D1E9CF
:101D18000C4223430C6813434A692B43234343EA89
:101D28008243436170BC7047CC6A1A43006842EA38
:101D38000403D1E90C4223430C6813434A69234343
:101D480043EA824370BC43617047CC6A1343234320
:101D5800D1E90C4223431343D1E90442234343EA24
:101D6800824370BC436170472343CC6A00681343C5
:101D780023430C6B23434C6B9AE700BF704700BFAB
:101D880070B50546FFF716F8002D46D095F8413096
:101D98000646002B39D0AC6C2A68A968136801394B
:101DA80023F4F85343EA0123136001E0631C24D1B0
:101DB800936813F02003F9D1E869E96814680143CE
:101DC800286A0143686841EA0061194820400143D4
:101DD80068691160A96954680143286941EA0041AA
:101DE80014482040012401431846516011682143DA
:101DF80011606B6485F8414070BDFEF7DBFF801B06
:101E0800A0420CD85CB12A68D2E72846FFF7B6FF93
:101E180041F288331C46AB64BEE7012070BD042341
:101E2800012085F841306B6C03436B6470BD00BFC3
:101E38002FFFFF00FEF8E0FF704700BF70B1026897
:101E4800136823F0010310B513600446FFF7F4FF8D
:101E580000236364184684F8413010BD01207047A0
:101E68002DE9F047054689461646FEF7A3FF95F883
:101E78004030012B48D0012385F8403095F8413097
:101E8800012B5FFA83FA07D04FF0020A002350466D
:101E980085F84030BDE8F087002380466B64022354
:101EA80085F841302F6801E0711C1DD1BC6814F021
:101EB8002004F9D1224649462846FFF7BBFED9F847
:101EC800243033B10123A24685F84130DEE7721C85
:101ED8001FD1BB689B07FAD5022201234FF0000AE5
:101EE800FA6085F84130D1E7FEF764FFA0EB0800FF
:101EF800864201D3002ED5D1042385F841306B6C7E
:101F080043F001036B64C1E74FF0020A5046BDE895
:101F1800F087FEF74FFFA0EB08008642ECD3002EB7
:101F2800EAD02F68D5E700BF2DE9F8430546894672
:101F38001446FEF73FFF95F840302F68012B60D01C
:101F4800012385F8403095F84130012B5FFA83F87A
:101F580007D04FF002080023404685F84030BDE81E
:101F6800F88300236B64B9F1000F4FD012230646A3
:101F780085F841303B690133EB623B69C5F8249031
:101F88000133AB627B6923F040637B61EB6AB3B1D9
:101F98003A4601E0601C25D193685907FAD56B6A67
:101FA8001B7887F82030EA6A6B6A013A0133EA62E3
:101FB800EA6A6B62A2B12A68EEE7621C0AD1BB68C2
:101FC8009B07FAD502234FF00008FB60012385F830
:101FD8004130C0E7FEF7EEFE801B844209D344B1CE
:101FE8002F68ECE7FEF7E6FE801B844201D3002C45
:101FF800E1D1042385F841306B6C43F001036B6435
:10200800E4E74FF002084046BDE8F8836B6C43F004
:1020180008036B649FE700BF2DE9F84305461446A3
:102028008946FEF7C7FE2F68BA6995F84030012B3C
:1020380064D0012385F8403095F84130012B5FFAD0
:1020480083F807D04FF002080023404685F8403057
:10205800BDE8F88300236B64B9F1000F53D0222345
:10206800064685F841303B690133AB633B69C5F8E7
:10207800309001336B637B6923F0406343F08063E6
:102088007B61BA61AB6BBBB13A4601E0611C26D1FA
:10209800936813F0060FF9D097F820202B6B1A706D
:1020A800AA6B2B6B013A0133AA63AA6B2B63A2B10B
:1020B8002A68EDE7621C0AD1BB689B07FAD50223A0
:1020C8004FF00008FB60012385F84130BCE7FEF7BC
:1020D80071FE801B844209D344B12F68ECE7FEF7F8
:1020E80069FE801B844201D3002CE1D1042385F8CA
:1020F80041306B6C43F001036B64E4E74FF0020876
:102108004046BDE8F8836B6C43F008036B649BE7BB
:102118002DE9F04704461D4688461746FEF74AFE55
:1021280094F84030012B52D0012384F8403094F8C1
:102138004130012B5FFA83FA07D04FF0020A0023DF
:10214800504684F84030BDE8F08700238146636438
:10215800422384F84130266801E0681C27D1B3681F
:102168009906FAD43B6841463A692046B3627B68CF
:102178007362BB68F362336823F440031343FA685D
:1021880043F480033360C8F828204FF00062FFF75B
:1021980051FD01E06A1C1FD1B3681B07FAD508225C
:1021A80001234FF0000AF26084F84130C7E7FEF7D8
:1021B80001FEA0EB0900854201D3002DCBD10423F9
:1021C80084F84130636C43F001036364B7E74FF070
:1021D800020A5046BDE8F087FEF7ECFDA0EB0900C7
:1021E8008542ECD3002DEAD02668D5E72DE9F047E3
:1021F800044688461746FEF7DDFD94F84030012B6B
:1022080040D0012384F8403094F84130012B5FFA24
:1022180083FA07D04FF0020A0023504684F8403072
:10222800BDE8F08700238146A66C6364822384F8A6
:102238004130256801E0721C14D1AB689B06FAD4C2
:102248002B687A6823F00803082A43EA02032B6004
:102258001DD04FF04062414620464FF0000AFFF77C
:10226800E9FCD9E7FEF7A6FDA0EB0900864201D3F9
:10227800002EDED1042384F84130636C43F001035F
:102288006364C9E74FF0020A5046BDE8F0873A6830
:1022980010232A63EB602B6843F480132B60D8E784
:1022A8000B6810B4D3B90468A3F500434A68234007
:1022B8001343D1E9024223431343D1E904422343A0
:1022C8001343D1E9064223431343D1E90842234388
:1022D8005DF8044B13430360002070470268D1E99E
:1022E800074322F4F84222434C6A1A430A4B22431A
:1022F800026042681340D1E9014223431343D1E904
:10230800034223431343D1E9054223435DF8044BB9
:1023180013434360002070470080FFFF30B40ABBBE
:102328008368D1E9002403F07043013C013A43EA91
:1023380004131343D1E90242013C013A43EA04235E
:10234800D1E9045443EA02338A69013D611E013A26
:1023580043EA054343EA015343EA026330BC83601E
:10236800002070478568CA68124B541E4A692B4082
:102378008D68013A43EA043305F1FF3C43EA02530E
:10238800D1E900248360C368013C013A03F070433B
:1023980043EA04130C6913438A69611E43EA0C2358
:1023A800013A43EA014343EA026330BCC3600020B8
:1023B800704700BFFF0F0FFF10B4D1E90034024689
:1023C80000692343D1E9021443EA4423054C013947
:1023D8000440002023435DF8044B43EA4113136192
:1023E800704700BF0000C0FF0246054B002010B434
:1023F800546923405DF8044B43EA41015161704739
:1024080001C0FFFF38B5104CE36813F0040FE36810
:1024180005D103F00703181A18BF012038BD23F0AF
:1024280007030343E360FEF7C5FC054605E0FEF736
:10243800C1FC401BB0F57A7F04D863689B04F6D5CD
:10244800002038BD012038BD0048025870B50D4E37
:102458000D4D761BB61006D0002455F8043B013408
:102468009847A642F9D1094E094D761B00F012F89B
:10247800B61006D0002455F8043B01349847A6420C
:10248800F9D170BDC4240008C4240008C824000879
:10249800C4240008F8B500BFF8BC08BC9E467047C5
:0C24A800F8B500BFF8BC08BC9E467047A9
:1024B40000000000010203040102030406070809E6
:0424C4000103000808
:0424C800D90200082D
:1024CC000090D0030090D003010000001000000029
:0400000508000325C7
:00000001FF
